:020000040003F7
:1000000000F002F800F044F80CA030C808382418BA
:100010002D18A246671EAB4654465D46AC4201D140
:1000200000F036F87E460F3E0FCCB646012633422E
:1000300000D0FB1AA246AB4633431847F40E00002B
:10004000140F0000103A02D378C878C1FAD85207CA
:1000500001D330C830C101D504680C60704700007E
:100060000023002400250026103A01D378C1FBD8D4
:10007000520700D330C100D50B60704710B510BDDA
:1000800010B500F041F810BD1FB5C046C0461FBDF9
:1000900000F03CFE1146FFF7F7FF00F04EFA00F0CB
:1000A00054FE03B4FFF7EAFF03BC00F071FE00004A
:1000B0000048704704400D000048704704400D00A0
:1000C00010B500F01DF810BD70B505460C4616467B
:1000D00002E00FCC0FC5103E102EFAD2082E02D32C
:1000E00003CC03C5083E042E07D301CC01C5361F3F
:1000F00003E021782970641C6D1C761EF9D270BD56
:100100002048882101707047FFB50F46097881B0FB
:100110001446002510260B0000F040FE0830050CA8
:1001200011181C232830451EEAB2781C049900F0EF
:10013000BFF802E0781C00F0C6F825701BE0781CC0
:10014000049900F0CBF809E0267014E0781C00F068
:10015000FAF8F2E7781C049900F0FCF800280BD0BC
:10016000F2E7781C049900F039F903E0781C04994F
:1001700000F062F92070012005B0F0BD157000207C
:10018000FAE7000000400D00F8B5CF081D46114603
:10019000069E00F0A1F9002407E03146284600F051
:1001A0009EF908350836641CA4B2BC42F5D3F8BDEC
:1001B000F8B5CF081D461146069E00F08DF90024C3
:1001C00007E03146284600F08CF908350836641CF3
:1001D000A4B2BC42F5D3F8BDF0B51D46BDB0134680
:1001E0000F096A461946429E00F07EF9002407E096
:1001F0003146284600F07EF910351036641CA4B252
:10020000BC42F5D33DB0F0BDF0B51D46BDB01346C0
:100210000F096A461946429E00F069F9002407E07A
:100220003146284600F069F910351036641CA4B236
:10023000BC42F5D3E6E7401EF32109034A680123D7
:1002400083409A434A607047401EF32109030968BE
:10025000C140C807C00F7047401EF32109034A6818
:10026000012383401A434A607047401EF32109036B
:100270000A68012383401A430A607047401EF32135
:1002800009030A68012383409A430A607047F8B55E
:100290001E4617460C46054600F032F9E2B23946D2
:1002A000284600F033F93146284600F032F9F8BD0F
:1002B00010B5002304E0C45CE443CC545B1CDBB207
:1002C0009342F8D310BD10B50178FF23491CCAB280
:1002D00001330146184600F0E7F810BD30B50D4671
:1002E00099B001460024082209A800F058F9082115
:1002F00011A800F0DFF8082211A9284600F04FF9F4
:1003000011AA09A8015D135D59400155641CE4B2AE
:10031000082CF7D3FF20112201A9013000F0C7F803
:1003200068460079082804D0102802D0002019B0AF
:1003300030BD083501AA09AB013208210095FFF74D
:1003400023FF0120F3E710B501460020082200F04A
:10035000ABF810BD70B50E46A2B0014600240822CD
:1003600019A800F01CF9082109A800F0A3F8082238
:1003700009A9304600F013F919A909AD285D0A5DF5
:1003800050402855641CE4B2082CF7D3082211A968
:10039000002000F08CF8002011A90A5C2B5C5A4068
:1003A0000A54401CC0B20828F7D3FF20112201A92B
:1003B000013000F07CF868460079082804D0102845
:1003C00002D0002022B070BD083601AA11AB013264
:1003D00008210096FFF7D8FE0120F3E738B50C4658
:1003E000002100910078022802D200F0BDFB1BE042
:1003F000811E042902D24043401CF6E7811F0429D4
:1004000005D2401C00F081FB00F0D6FC0AE00A286F
:100410000BD3401C00F079FB0B460246002020491C
:1004200000F024F900F0E4F8009004226946204628
:1004300000F0B5F8042038BDF0B58BB00D46194971
:1004400000236C460A919E00311900223618B75CD1
:100450000F70521C491CD2B2042AF8D35B1CDBB2C9
:100460000A2BF0D30026B700E0590A9900F0C8FC27
:10047000761CF6B2E0510A2EF5D3002083001A193B
:1004800000215B1916785E54491C521CC9B204291C
:10049000F8D3401CC0B20A28F0D328200BB0F0BD1E
:1004A0000000F03F00009040FF2344331847FF2333
:1004B00066331847FF2288321047FF21E83108478A
:1004C000FF2398331847FF23AC331847FF23C0336B
:1004D0001847FF23D4331847FF22F43210471C4A31
:1004E00010471B4A10321047194B20331847184B3E
:1004F0003C331847164A58321047154A6E32104797
:10050000134984310847124B90331847104BA433DA
:1005100018470F4AB832104730B40E4CA44630BCCE
:10052000604730B40B4C303CA44630BC6047094AAD
:10053000543A104707484638004710B5FFF7E0FD2A
:1005400000231A4619461846FFF79AFD002010BDF1
:10055000030200001F030000431A70B593421BD230
:100560008918801804E0491E521E0B78401E037043
:100570009307F8D106E010390B461038103A78CBC3
:1005800078C01038102AF6D203E0001F091F0B684C
:100590000360121FF9D570BDFFF796FD70BDF8B569
:1005A000064614460843800707D0751AA54219D29B
:1005B0000819102D13D2311907E03046FFF7CCFF90
:1005C000F8BD401E491E02780A70641EF9D2F8BDBB
:1005D000471B2A46394600F0D5FA641B3846A54227
:1005E000F6D3011B2246304600F0CCFAF8BD0000DD
:1005F0000246C80FC00781434B0030B54B405B003B
:100600009B0D20D01923DB06C91801231B05994235
:1006100020DB0324A40704251346AB400BD3002B97
:1006200004D1EB0613409B001B1904D4012464077A
:10063000002312195941FF231B0599420BD2C9000F
:100640000143500F09E0CB0204D5014308030243E4
:1006500005D0054830BDFF21C905084330BD084617
:1006600007210905884330BD0000C07FF0B51FB4E5
:10067000FA4F0E091D09BC463E403D400C46B743AB
:100680005C408CB0002F7DD06746AF43FBD0002D7F
:1006900079D0002EFCD0E20F3243521BFF24A40479
:1006A00012190892420DCD02C7020E981543420D51
:1006B000D9021143C202600305430143080C0195AE
:1006C000150CAC4605040B46AB430A9565462D0454
:1006D000AA430995E24D040A7D446419803C2578BB
:1006E00006466E4301247619E405A61B7543ED0CFE
:1006F000AD1C490B69434919A401611A0E0CB64699
:100700003604B143694376466E43090C7118890972
:100710000591F90700D0A100049101997F08CC0749
:1007200027434C08059DE10B4D432D0C2946664699
:10073000754302950D4645432E46029D7D1BB441EF
:1007400000950D465D4301942C0C2F040D46554336
:10075000AE462D0C3D43029503947546049C2D0432
:10076000641B049406D2029C039D641C0026754100
:100770000395029401AC70CC009F7D1BB441090429
:10078000009501E03BE15FE1079101940599A40820
:100790006143090C0C464443650BE70464464C4333
:1007A000A646640B3C43039502947446049DE404FE
:1007B0002C1B049406D2029C039D641C00267541E8
:1007C0000395029401AC70CC009F7D1BB441019451
:1007D0000C465C430095650FE7000C465443A64663
:1007E000640F3C43039502947446049DE4002C1B63
:1007F000049406D2029C039D641C00267541039557
:10080000029401AC70CC009F7D1BB441AE09AF06D1
:10081000049DC900AD092F43049DA406AD060495AF
:10082000079D344369180791059DE10B4D432D0C3D
:1008300029466646754302950D4645432E46029D60
:100840007D1BB44100950D465D4301942C0C2F0493
:100850000D465543AE462D0C3D4302950394754617
:10086000049C2D04641B049406D2029C039D641C0A
:10087000002675410395029401AC70CC009F7D1B4E
:10088000B44101948C050694079C890A611800956F
:100890000791019C0599A4086143090C0D46454345
:1008A000680BEF040D46644665436C0B3C43049FA4
:1008B000ED047D1BAC4602D20025641C6841009EFD
:1008C000019D371B85410846584301950C46460F4C
:1008D000C5005443600F28436546E4002C1B02D238
:1008E0000025401C6E41019D3F1AB5412846BD09B7
:1008F000800628438446A009BF064E020699A40636
:1009000076180743079D002068410A99079019430C
:100910000020099B00906046FF1913434041E20FFD
:1009200064003A43A4460446D71A8C41A04203D936
:100930000120009020463A46C70F94184041624675
:10094000D20F2243644664000494009CBE466400B7
:10095000D71AA446044602978C417746002F01D14E
:10096000A04204D96046401C8446029A2046C40F27
:10097000A64694184041049A0546D20F2243644685
:100980006400D31A8D417146002901D1A84202D9D1
:10099000641C28461A4610430122002800D0164342
:1009A00061020020079B044689195C410223002C48
:1009B00002DB491813466441089DCE0A2D145D19C7
:1009C0004B056705E10A2C050C1908993E43C90738
:1009D0006140002B08D0934006D30022761C514181
:1009E000002B01D1760876001E4A002C45DB2346F9
:1009F000134242D0A24340D0304611B0F0BD0E4663
:100A000007184E41184D7A42B5411AD30E9A1D4629
:100A100096185D41144A7642AA4112D3012252052A
:100A20004D00D5420AD15C00D4420AD04B4002D5D9
:100A300092021143E1E749004908DEE7E10FC907E7
:100A40000AE000200949D8E70648014212D00848C8
:100A500021460143C01241400020CEE70000FF07BD
:100A6000D40700000000F07F0000E0FF0000F87FE6
:100A7000FFFFFF7F0342E4D0E0E70123089A9B06D3
:100A80009A4205DC032252078918C90FC907B4E747
:100A9000052252078918074A1143D2125140ACE788
:100AA0005940504010B54B40424059405040FFF72C
:100AB000DDFD10BDFFFFFF7F1F22030C02D10F22BF
:100AC000000402D0030E03D004E00020014670476A
:100AD000083A0002030F01D1121F0001830F01D158
:100AE000921E8000002801DB521E400012055118A2
:100AF0004205C012411810467047C10FC90700D007
:100B00004042012292071143D6E701218907D3E72A
:100B10001F22030C02D10F2200041CD0030E01D1AE
:100B2000083A0002030F01D1121F0001830F01D107
:100B3000921E8000002801DB521E4000D205511891
:100B4000021251181922904004D3491C002801D1E7
:100B50004908490008467047C10FC90700D0404204
:100B6000012292071143D3E701218907D0E710B58D
:100B7000FFF79EFA006810BD10B50446FFF798FA1B
:100B8000046010BDF8B5042A2CD3830712D00B786B
:100B9000491C0370401C521E83070BD00B78491C64
:100BA0000370401C521E830704D00B78491C03704D
:100BB000401C521E8B079B0F05D0C91ADF00202353
:100BC000DE1B08C90AE0FFF77FFAF8BD1D4608C919
:100BD000FD401C46B4402C4310C0121F042AF5D21D
:100BE000F308C91A521EF0D40B78491C0370401C3C
:100BF000521EEAD40B78491C0370401C521EE4D4E8
:100C000009780170F8BD0000F0B502463D4C0803BC
:100C100013460D46034325400020002D63D03A4D76
:100C20008C4365D0002969DB0B0D1D05A943012507
:100C30002D052943FD330124E34001D39218494196
:100C4000FF3381339C468B02940D01212343890796
:100C50004C42920200271B198C105D1A04D42D1BE4
:100C600002D42B466500491992185B416408F4D1FF
:100C70005C1A08D40125ED07EE175519744102D40A
:100C80002A462346491C94185B41012292071D46BF
:100C9000E61B8D4106D4B61A854103D42B46550078
:100CA00034467F1924195B415208802AEFD123432F
:100CB00000D0022338460A22D04001D30122134338
:100CC0008A0510436246890A12058918002B09D04B
:100CD0000122D34002D30022401C5141002B01D1FC
:100CE00040084000F0BD002B06D0C90FC907F0BD79
:100CF000002B03D1002901DB1046F0BD002029465E
:100D0000F0BD00000000F07F0000F87F7546FFF79F
:100D1000D3F9AE46050069465346C008C000854673
:100D200018B020B500F018F860BC00274908B64696
:100D30000026C0C5C0C5C0C5C0C5C0C5C0C5C0C5EA
:100D4000C0C5403D49008D4670470446C046C04678
:100D50002046FFF7A6F9000000B585B0694601AA54
:100D600009480A60ABBE0198002803D10548072155
:100D7000401888430399029A049B05B000BD00BF48
:100D80000D00000000000000160000007047000089
:100D900001491820ABBEFEE72600020030B47446BD
:100DA000641E2578641CAB4200D21D46635D5B0067
:100DB000E31830BC18470000F8B506460C46FFF7AC
:100DC00023FF05000F4600D00120014349000B48D6
:100DD0004908411AC90F0DD0002E01D0012100E0B1
:100DE00000210C4361004908401AC00F02D10120C4
:100DF000FFF7C2FE28463946F8BD00000000F07F2C
:100E000070B5420064414B005C41120E39D01B0E9C
:100E100038D0FF2A3CD0FF2B3AD040024902400A8A
:100E2000490A060045184E43000A090AD2184843E9
:100E3000ED017F3A0104731A4019190C4318990FF8
:100E400004D001215B0849075B1A521CD80904D35E
:100E5000401CF50301D19D0607D0FF2A08D2D50515
:100E600006D0E4072043401970BD0125A843F4E7EC
:100E7000002A01DCE00770BD2402FF202043C005EA
:100E800070BD1B0EFF2A03D0FF2B01D0E00770BD01
:100E9000FF2645003606B54206D84D00B54203D8B8
:100EA000D218FF2A00D0E7E7004870BD0000C07FDD
:100EB00080807F7E7D7C7B7A797877767675747397
:100EC000727171706F6E6E6D6C6C6B6A6A69686856
:100ED000676666656464636362616160605F5F5EEC
:100EE0005E5D5D5C5C5B5B5A5A5959585857575662
:100EF00056555555545453535252525151505050C7
:100F00004F4F4F4E4E4D4D4D4C4C4C4B4B4B4A4A18
:100F10004A4949494848484747474746464645455C
:100F20004544444444434343434242424241414195
:100F3000500F030000400D000400000044000300B7
:100F4000540F030004400D00600000006000030027
:040F5000000000009D
:0400000500030001F3
:00000001FF
